{
  "_format": "hh-sol-artifact-1",
  "contractName": "NFTMarketplace",
  "sourceName": "contracts/NFTMarketplace.sol",
  "abi": [
    {
      "inputs": [
        {
          "internalType": "address",
          "name": "_membershipNFTAddress",
          "type": "address"
        }
      ],
      "stateMutability": "nonpayable",
      "type": "constructor"
    },
    {
      "inputs": [
        {
          "internalType": "address",
          "name": "sender",
          "type": "address"
        },
        {
          "internalType": "uint256",
          "name": "tokenId",
          "type": "uint256"
        },
        {
          "internalType": "address",
          "name": "owner",
          "type": "address"
        }
      ],
      "name": "ERC721IncorrectOwner",
      "type": "error"
    },
    {
      "inputs": [
        {
          "internalType": "address",
          "name": "operator",
          "type": "address"
        },
        {
          "internalType": "uint256",
          "name": "tokenId",
          "type": "uint256"
        }
      ],
      "name": "ERC721InsufficientApproval",
      "type": "error"
    },
    {
      "inputs": [
        {
          "internalType": "address",
          "name": "approver",
          "type": "address"
        }
      ],
      "name": "ERC721InvalidApprover",
      "type": "error"
    },
    {
      "inputs": [
        {
          "internalType": "address",
          "name": "operator",
          "type": "address"
        }
      ],
      "name": "ERC721InvalidOperator",
      "type": "error"
    },
    {
      "inputs": [
        {
          "internalType": "address",
          "name": "owner",
          "type": "address"
        }
      ],
      "name": "ERC721InvalidOwner",
      "type": "error"
    },
    {
      "inputs": [
        {
          "internalType": "address",
          "name": "receiver",
          "type": "address"
        }
      ],
      "name": "ERC721InvalidReceiver",
      "type": "error"
    },
    {
      "inputs": [
        {
          "internalType": "address",
          "name": "sender",
          "type": "address"
        }
      ],
      "name": "ERC721InvalidSender",
      "type": "error"
    },
    {
      "inputs": [
        {
          "internalType": "uint256",
          "name": "tokenId",
          "type": "uint256"
        }
      ],
      "name": "ERC721NonexistentToken",
      "type": "error"
    },
    {
      "inputs": [
        {
          "internalType": "address",
          "name": "owner",
          "type": "address"
        }
      ],
      "name": "OwnableInvalidOwner",
      "type": "error"
    },
    {
      "inputs": [
        {
          "internalType": "address",
          "name": "account",
          "type": "address"
        }
      ],
      "name": "OwnableUnauthorizedAccount",
      "type": "error"
    },
    {
      "anonymous": false,
      "inputs": [
        {
          "indexed": true,
          "internalType": "address",
          "name": "owner",
          "type": "address"
        },
        {
          "indexed": true,
          "internalType": "address",
          "name": "approved",
          "type": "address"
        },
        {
          "indexed": true,
          "internalType": "uint256",
          "name": "tokenId",
          "type": "uint256"
        }
      ],
      "name": "Approval",
      "type": "event"
    },
    {
      "anonymous": false,
      "inputs": [
        {
          "indexed": true,
          "internalType": "address",
          "name": "owner",
          "type": "address"
        },
        {
          "indexed": true,
          "internalType": "address",
          "name": "operator",
          "type": "address"
        },
        {
          "indexed": false,
          "internalType": "bool",
          "name": "approved",
          "type": "bool"
        }
      ],
      "name": "ApprovalForAll",
      "type": "event"
    },
    {
      "anonymous": false,
      "inputs": [
        {
          "indexed": true,
          "internalType": "address",
          "name": "owner",
          "type": "address"
        },
        {
          "indexed": true,
          "internalType": "uint256",
          "name": "tokenId",
          "type": "uint256"
        }
      ],
      "name": "NFTDelisted",
      "type": "event"
    },
    {
      "anonymous": false,
      "inputs": [
        {
          "indexed": true,
          "internalType": "address",
          "name": "seller",
          "type": "address"
        },
        {
          "indexed": true,
          "internalType": "uint256",
          "name": "tokenId",
          "type": "uint256"
        },
        {
          "indexed": false,
          "internalType": "uint256",
          "name": "price",
          "type": "uint256"
        },
        {
          "indexed": false,
          "internalType": "uint256",
          "name": "duration",
          "type": "uint256"
        }
      ],
      "name": "NFTListed",
      "type": "event"
    },
    {
      "anonymous": false,
      "inputs": [
        {
          "indexed": true,
          "internalType": "address",
          "name": "minter",
          "type": "address"
        },
        {
          "indexed": true,
          "internalType": "uint256",
          "name": "tokenId",
          "type": "uint256"
        },
        {
          "indexed": false,
          "internalType": "string",
          "name": "tokenURI",
          "type": "string"
        }
      ],
      "name": "NFTMinted",
      "type": "event"
    },
    {
      "anonymous": false,
      "inputs": [
        {
          "indexed": true,
          "internalType": "address",
          "name": "seller",
          "type": "address"
        },
        {
          "indexed": true,
          "internalType": "address",
          "name": "buyer",
          "type": "address"
        },
        {
          "indexed": true,
          "internalType": "uint256",
          "name": "tokenId",
          "type": "uint256"
        },
        {
          "indexed": false,
          "internalType": "uint256",
          "name": "price",
          "type": "uint256"
        }
      ],
      "name": "NFTSold",
      "type": "event"
    },
    {
      "anonymous": false,
      "inputs": [
        {
          "indexed": true,
          "internalType": "address",
          "name": "previousOwner",
          "type": "address"
        },
        {
          "indexed": true,
          "internalType": "address",
          "name": "newOwner",
          "type": "address"
        }
      ],
      "name": "OwnershipTransferred",
      "type": "event"
    },
    {
      "anonymous": false,
      "inputs": [
        {
          "indexed": true,
          "internalType": "address",
          "name": "seller",
          "type": "address"
        },
        {
          "indexed": false,
          "internalType": "uint256",
          "name": "amount",
          "type": "uint256"
        }
      ],
      "name": "ProceedsWithdrawn",
      "type": "event"
    },
    {
      "anonymous": false,
      "inputs": [
        {
          "indexed": true,
          "internalType": "address",
          "name": "from",
          "type": "address"
        },
        {
          "indexed": true,
          "internalType": "address",
          "name": "to",
          "type": "address"
        },
        {
          "indexed": true,
          "internalType": "uint256",
          "name": "tokenId",
          "type": "uint256"
        }
      ],
      "name": "Transfer",
      "type": "event"
    },
    {
      "inputs": [],
      "name": "_admin",
      "outputs": [
        {
          "internalType": "address",
          "name": "",
          "type": "address"
        }
      ],
      "stateMutability": "view",
      "type": "function"
    },
    {
      "inputs": [
        {
          "internalType": "address",
          "name": "",
          "type": "address"
        }
      ],
      "name": "_authorizedMinters",
      "outputs": [
        {
          "internalType": "bool",
          "name": "",
          "type": "bool"
        }
      ],
      "stateMutability": "view",
      "type": "function"
    },
    {
      "inputs": [],
      "name": "_marketplaceFee",
      "outputs": [
        {
          "internalType": "uint256",
          "name": "",
          "type": "uint256"
        }
      ],
      "stateMutability": "view",
      "type": "function"
    },
    {
      "inputs": [],
      "name": "_numberOfMintedNFTs",
      "outputs": [
        {
          "internalType": "uint256",
          "name": "",
          "type": "uint256"
        }
      ],
      "stateMutability": "view",
      "type": "function"
    },
    {
      "inputs": [],
      "name": "_numberOfSales",
      "outputs": [
        {
          "internalType": "uint256",
          "name": "",
          "type": "uint256"
        }
      ],
      "stateMutability": "view",
      "type": "function"
    },
    {
      "inputs": [],
      "name": "_numberOfSellers",
      "outputs": [
        {
          "internalType": "uint256",
          "name": "",
          "type": "uint256"
        }
      ],
      "stateMutability": "view",
      "type": "function"
    },
    {
      "inputs": [
        {
          "internalType": "address",
          "name": "",
          "type": "address"
        }
      ],
      "name": "_proceeds",
      "outputs": [
        {
          "internalType": "uint256",
          "name": "",
          "type": "uint256"
        }
      ],
      "stateMutability": "view",
      "type": "function"
    },
    {
      "inputs": [
        {
          "internalType": "address",
          "name": "",
          "type": "address"
        }
      ],
      "name": "_sellerHasListedBefore",
      "outputs": [
        {
          "internalType": "bool",
          "name": "",
          "type": "bool"
        }
      ],
      "stateMutability": "view",
      "type": "function"
    },
    {
      "inputs": [
        {
          "internalType": "address",
          "name": "",
          "type": "address"
        }
      ],
      "name": "_sellers",
      "outputs": [
        {
          "internalType": "uint256",
          "name": "totalSales",
          "type": "uint256"
        },
        {
          "internalType": "uint256",
          "name": "totalEarnings",
          "type": "uint256"
        },
        {
          "internalType": "uint256",
          "name": "totalMintedNFTS",
          "type": "uint256"
        }
      ],
      "stateMutability": "view",
      "type": "function"
    },
    {
      "inputs": [
        {
          "internalType": "uint256",
          "name": "",
          "type": "uint256"
        }
      ],
      "name": "_tokenExists",
      "outputs": [
        {
          "internalType": "bool",
          "name": "",
          "type": "bool"
        }
      ],
      "stateMutability": "view",
      "type": "function"
    },
    {
      "inputs": [],
      "name": "_tokenIdCounter",
      "outputs": [
        {
          "internalType": "uint256",
          "name": "",
          "type": "uint256"
        }
      ],
      "stateMutability": "view",
      "type": "function"
    },
    {
      "inputs": [
        {
          "internalType": "uint256",
          "name": "",
          "type": "uint256"
        }
      ],
      "name": "_tokenURIs",
      "outputs": [
        {
          "internalType": "string",
          "name": "",
          "type": "string"
        }
      ],
      "stateMutability": "view",
      "type": "function"
    },
    {
      "inputs": [
        {
          "internalType": "address",
          "name": "to",
          "type": "address"
        },
        {
          "internalType": "uint256",
          "name": "tokenId",
          "type": "uint256"
        }
      ],
      "name": "approve",
      "outputs": [],
      "stateMutability": "nonpayable",
      "type": "function"
    },
    {
      "inputs": [
        {
          "internalType": "address",
          "name": "owner",
          "type": "address"
        }
      ],
      "name": "balanceOf",
      "outputs": [
        {
          "internalType": "uint256",
          "name": "",
          "type": "uint256"
        }
      ],
      "stateMutability": "view",
      "type": "function"
    },
    {
      "inputs": [
        {
          "internalType": "uint256",
          "name": "tokenId",
          "type": "uint256"
        }
      ],
      "name": "buyNFT",
      "outputs": [],
      "stateMutability": "payable",
      "type": "function"
    },
    {
      "inputs": [
        {
          "internalType": "uint256",
          "name": "tokenId",
          "type": "uint256"
        }
      ],
      "name": "delistNFT",
      "outputs": [],
      "stateMutability": "payable",
      "type": "function"
    },
    {
      "inputs": [
        {
          "internalType": "uint256",
          "name": "tokenId",
          "type": "uint256"
        }
      ],
      "name": "getApproved",
      "outputs": [
        {
          "internalType": "address",
          "name": "",
          "type": "address"
        }
      ],
      "stateMutability": "view",
      "type": "function"
    },
    {
      "inputs": [
        {
          "internalType": "uint256",
          "name": "tokenId",
          "type": "uint256"
        }
      ],
      "name": "getNFTDetails",
      "outputs": [
        {
          "internalType": "uint256",
          "name": "price",
          "type": "uint256"
        },
        {
          "internalType": "uint256",
          "name": "timeLeft",
          "type": "uint256"
        },
        {
          "internalType": "address",
          "name": "owner",
          "type": "address"
        },
        {
          "internalType": "uint256",
          "name": "delistingFee",
          "type": "uint256"
        }
      ],
      "stateMutability": "view",
      "type": "function"
    },
    {
      "inputs": [
        {
          "internalType": "address",
          "name": "owner",
          "type": "address"
        },
        {
          "internalType": "address",
          "name": "operator",
          "type": "address"
        }
      ],
      "name": "isApprovedForAll",
      "outputs": [
        {
          "internalType": "bool",
          "name": "",
          "type": "bool"
        }
      ],
      "stateMutability": "view",
      "type": "function"
    },
    {
      "inputs": [
        {
          "internalType": "uint256",
          "name": "tokenId",
          "type": "uint256"
        },
        {
          "internalType": "uint256",
          "name": "price",
          "type": "uint256"
        },
        {
          "internalType": "uint256",
          "name": "duration",
          "type": "uint256"
        }
      ],
      "name": "listNFT",
      "outputs": [],
      "stateMutability": "nonpayable",
      "type": "function"
    },
    {
      "inputs": [],
      "name": "maxMintsPerAddress",
      "outputs": [
        {
          "internalType": "uint256",
          "name": "",
          "type": "uint256"
        }
      ],
      "stateMutability": "view",
      "type": "function"
    },
    {
      "inputs": [],
      "name": "maxSupply",
      "outputs": [
        {
          "internalType": "uint256",
          "name": "",
          "type": "uint256"
        }
      ],
      "stateMutability": "view",
      "type": "function"
    },
    {
      "inputs": [],
      "name": "membershipNFTAddress",
      "outputs": [
        {
          "internalType": "address",
          "name": "",
          "type": "address"
        }
      ],
      "stateMutability": "view",
      "type": "function"
    },
    {
      "inputs": [
        {
          "internalType": "address",
          "name": "to",
          "type": "address"
        },
        {
          "internalType": "string",
          "name": "tokenURI",
          "type": "string"
        }
      ],
      "name": "mintNFT",
      "outputs": [],
      "stateMutability": "payable",
      "type": "function"
    },
    {
      "inputs": [],
      "name": "mintingFee",
      "outputs": [
        {
          "internalType": "uint256",
          "name": "",
          "type": "uint256"
        }
      ],
      "stateMutability": "view",
      "type": "function"
    },
    {
      "inputs": [],
      "name": "name",
      "outputs": [
        {
          "internalType": "string",
          "name": "",
          "type": "string"
        }
      ],
      "stateMutability": "view",
      "type": "function"
    },
    {
      "inputs": [
        {
          "internalType": "uint256",
          "name": "",
          "type": "uint256"
        }
      ],
      "name": "nfts",
      "outputs": [
        {
          "internalType": "uint256",
          "name": "price",
          "type": "uint256"
        },
        {
          "internalType": "uint256",
          "name": "expiration",
          "type": "uint256"
        },
        {
          "internalType": "address",
          "name": "owner",
          "type": "address"
        },
        {
          "internalType": "bool",
          "name": "listed",
          "type": "bool"
        }
      ],
      "stateMutability": "view",
      "type": "function"
    },
    {
      "inputs": [],
      "name": "owner",
      "outputs": [
        {
          "internalType": "address",
          "name": "",
          "type": "address"
        }
      ],
      "stateMutability": "view",
      "type": "function"
    },
    {
      "inputs": [
        {
          "internalType": "uint256",
          "name": "tokenId",
          "type": "uint256"
        }
      ],
      "name": "ownerOf",
      "outputs": [
        {
          "internalType": "address",
          "name": "",
          "type": "address"
        }
      ],
      "stateMutability": "view",
      "type": "function"
    },
    {
      "inputs": [],
      "name": "renounceOwnership",
      "outputs": [],
      "stateMutability": "nonpayable",
      "type": "function"
    },
    {
      "inputs": [
        {
          "internalType": "address",
          "name": "from",
          "type": "address"
        },
        {
          "internalType": "address",
          "name": "to",
          "type": "address"
        },
        {
          "internalType": "uint256",
          "name": "tokenId",
          "type": "uint256"
        }
      ],
      "name": "safeTransferFrom",
      "outputs": [],
      "stateMutability": "nonpayable",
      "type": "function"
    },
    {
      "inputs": [
        {
          "internalType": "address",
          "name": "from",
          "type": "address"
        },
        {
          "internalType": "address",
          "name": "to",
          "type": "address"
        },
        {
          "internalType": "uint256",
          "name": "tokenId",
          "type": "uint256"
        },
        {
          "internalType": "bytes",
          "name": "data",
          "type": "bytes"
        }
      ],
      "name": "safeTransferFrom",
      "outputs": [],
      "stateMutability": "nonpayable",
      "type": "function"
    },
    {
      "inputs": [
        {
          "internalType": "address",
          "name": "operator",
          "type": "address"
        },
        {
          "internalType": "bool",
          "name": "approved",
          "type": "bool"
        }
      ],
      "name": "setApprovalForAll",
      "outputs": [],
      "stateMutability": "nonpayable",
      "type": "function"
    },
    {
      "inputs": [
        {
          "internalType": "bytes4",
          "name": "interfaceId",
          "type": "bytes4"
        }
      ],
      "name": "supportsInterface",
      "outputs": [
        {
          "internalType": "bool",
          "name": "",
          "type": "bool"
        }
      ],
      "stateMutability": "view",
      "type": "function"
    },
    {
      "inputs": [],
      "name": "symbol",
      "outputs": [
        {
          "internalType": "string",
          "name": "",
          "type": "string"
        }
      ],
      "stateMutability": "view",
      "type": "function"
    },
    {
      "inputs": [
        {
          "internalType": "uint256",
          "name": "tokenId",
          "type": "uint256"
        }
      ],
      "name": "tokenURI",
      "outputs": [
        {
          "internalType": "string",
          "name": "",
          "type": "string"
        }
      ],
      "stateMutability": "view",
      "type": "function"
    },
    {
      "inputs": [
        {
          "internalType": "address",
          "name": "from",
          "type": "address"
        },
        {
          "internalType": "address",
          "name": "to",
          "type": "address"
        },
        {
          "internalType": "uint256",
          "name": "tokenId",
          "type": "uint256"
        }
      ],
      "name": "transferFrom",
      "outputs": [],
      "stateMutability": "nonpayable",
      "type": "function"
    },
    {
      "inputs": [
        {
          "internalType": "address",
          "name": "newOwner",
          "type": "address"
        }
      ],
      "name": "transferOwnership",
      "outputs": [],
      "stateMutability": "nonpayable",
      "type": "function"
    },
    {
      "inputs": [],
      "name": "withdrawProceeds",
      "outputs": [],
      "stateMutability": "nonpayable",
      "type": "function"
    }
  ],
  "bytecode": "0x608060405273bc4ca0eda7647a8ab7c2061c2e118a18a936f13d601060006101000a81548173ffffffffffffffffffffffffffffffffffffffff021916908373ffffffffffffffffffffffffffffffffffffffff1602179055503480156200006657600080fd5b50604051620050193803806200501983398181016040528101906200008c919062000367565b336040518060400160405280600f81526020017f4e4654204d61726b6574706c61636500000000000000000000000000000000008152506040518060400160405280600481526020017f4e46544d0000000000000000000000000000000000000000000000000000000081525081600090816200010a919062000613565b5080600190816200011c919062000613565b505050600073ffffffffffffffffffffffffffffffffffffffff168173ffffffffffffffffffffffffffffffffffffffff1603620001945760006040517f1e4fbdf70000000000000000000000000000000000000000000000000000000081526004016200018b91906200070b565b60405180910390fd5b620001a5816200023760201b60201c565b5033600f60006101000a81548173ffffffffffffffffffffffffffffffffffffffff021916908373ffffffffffffffffffffffffffffffffffffffff160217905550600260098190555080601060006101000a81548173ffffffffffffffffffffffffffffffffffffffff021916908373ffffffffffffffffffffffffffffffffffffffff1602179055505062000728565b6000600660009054906101000a900473ffffffffffffffffffffffffffffffffffffffff16905081600660006101000a81548173ffffffffffffffffffffffffffffffffffffffff021916908373ffffffffffffffffffffffffffffffffffffffff1602179055508173ffffffffffffffffffffffffffffffffffffffff168173ffffffffffffffffffffffffffffffffffffffff167f8be0079c531659141344cd1fd0a4f28419497f9722a3daafe3b4186f6b6457e060405160405180910390a35050565b600080fd5b600073ffffffffffffffffffffffffffffffffffffffff82169050919050565b60006200032f8262000302565b9050919050565b620003418162000322565b81146200034d57600080fd5b50565b600081519050620003618162000336565b92915050565b60006020828403121562000380576200037f620002fd565b5b6000620003908482850162000350565b91505092915050565b600081519050919050565b7f4e487b7100000000000000000000000000000000000000000000000000000000600052604160045260246000fd5b7f4e487b7100000000000000000000000000000000000000000000000000000000600052602260045260246000fd5b600060028204905060018216806200041b57607f821691505b602082108103620004315762000430620003d3565b5b50919050565b60008190508160005260206000209050919050565b60006020601f8301049050919050565b600082821b905092915050565b6000600883026200049b7fffffffffffffffffffffffffffffffffffffffffffffffffffffffffffffffff826200045c565b620004a786836200045c565b95508019841693508086168417925050509392505050565b6000819050919050565b6000819050919050565b6000620004f4620004ee620004e884620004bf565b620004c9565b620004bf565b9050919050565b6000819050919050565b6200051083620004d3565b620005286200051f82620004fb565b84845462000469565b825550505050565b600090565b6200053f62000530565b6200054c81848462000505565b505050565b5b8181101562000574576200056860008262000535565b60018101905062000552565b5050565b601f821115620005c3576200058d8162000437565b62000598846200044c565b81016020851015620005a8578190505b620005c0620005b7856200044c565b83018262000551565b50505b505050565b600082821c905092915050565b6000620005e860001984600802620005c8565b1980831691505092915050565b6000620006038383620005d5565b9150826002028217905092915050565b6200061e8262000399565b67ffffffffffffffff8111156200063a5762000639620003a4565b5b62000646825462000402565b6200065382828562000578565b600060209050601f8311600181146200068b576000841562000676578287015190505b620006828582620005f5565b865550620006f2565b601f1984166200069b8662000437565b60005b82811015620006c5578489015182556001820191506020850194506020810190506200069e565b86831015620006e55784890151620006e1601f891682620005d5565b8355505b6001600288020188555050505b505050505050565b620007058162000322565b82525050565b6000602082019050620007226000830184620006fa565b92915050565b6148e180620007386000396000f3fe6080604052600436106102305760003560e01c8063895e8b231161012e578063b88d4fde116100ab578063e314cbd51161006f578063e314cbd514610867578063e985e9c5146108a4578063eacabe14146108e1578063f0a6e007146108fd578063f2fde38b1461093a57610230565b8063b88d4fde1461077b578063c87b56dd146107a4578063cb917b9c146107e1578063d4e0839b146107fd578063d5abeb011461083c57610230565b8063a1fd4223116100f2578063a1fd422314610696578063a22cb465146106d3578063ae6a80d5146106fc578063b0136c8d14610727578063b43fa8f61461075057610230565b8063895e8b23146105c15780638da5cb5b146105fe5780639038e6931461062957806394cceb431461064057806395d89b411461066b57610230565b806342842e0e116101bc57806370a082311161018057806370a08231146104d7578063715018a61461051457806382260f351461052b57806384c4bd4b1461056b5780638592beb81461059657610230565b806342842e0e146103ff57806351ed8288146104285780635a64ad95146104445780636352211e1461046f5780636fc2886b146104ac57610230565b8063095ea7b311610203578063095ea7b3146103055780630bb78ec11461032e57806323b872dd1461036b578063265aa6211461039457806330c20352146103d457610230565b806301bc45c91461023557806301ffc9a71461026057806306fdde031461029d578063081812fc146102c8575b600080fd5b34801561024157600080fd5b5061024a610963565b6040516102579190613318565b60405180910390f35b34801561026c57600080fd5b506102876004803603810190610282919061339f565b610989565b60405161029491906133e7565b60405180910390f35b3480156102a957600080fd5b506102b2610a6b565b6040516102bf9190613492565b60405180910390f35b3480156102d457600080fd5b506102ef60048036038101906102ea91906134ea565b610afd565b6040516102fc9190613318565b60405180910390f35b34801561031157600080fd5b5061032c60048036038101906103279190613543565b610b19565b005b34801561033a57600080fd5b50610355600480360381019061035091906134ea565b610b2f565b6040516103629190613492565b60405180910390f35b34801561037757600080fd5b50610392600480360381019061038d9190613583565b610bcf565b005b3480156103a057600080fd5b506103bb60048036038101906103b691906134ea565b610cd1565b6040516103cb94939291906135e5565b60405180910390f35b3480156103e057600080fd5b506103e9610d2e565b6040516103f6919061362a565b60405180910390f35b34801561040b57600080fd5b5061042660048036038101906104219190613583565b610d34565b005b610442600480360381019061043d91906134ea565b610d54565b005b34801561045057600080fd5b506104596110e0565b604051610466919061362a565b60405180910390f35b34801561047b57600080fd5b50610496600480360381019061049191906134ea565b6110e6565b6040516104a39190613318565b60405180910390f35b3480156104b857600080fd5b506104c16110f8565b6040516104ce9190613318565b60405180910390f35b3480156104e357600080fd5b506104fe60048036038101906104f99190613645565b61111e565b60405161050b919061362a565b60405180910390f35b34801561052057600080fd5b506105296111d8565b005b34801561053757600080fd5b50610552600480360381019061054d91906134ea565b6111ec565b6040516105629493929190613672565b60405180910390f35b34801561057757600080fd5b5061058061133d565b60405161058d919061362a565b60405180910390f35b3480156105a257600080fd5b506105ab611343565b6040516105b8919061362a565b60405180910390f35b3480156105cd57600080fd5b506105e860048036038101906105e391906134ea565b611349565b6040516105f591906133e7565b60405180910390f35b34801561060a57600080fd5b50610613611369565b6040516106209190613318565b60405180910390f35b34801561063557600080fd5b5061063e611393565b005b34801561064c57600080fd5b5061065561155d565b604051610662919061362a565b60405180910390f35b34801561067757600080fd5b50610680611563565b60405161068d9190613492565b60405180910390f35b3480156106a257600080fd5b506106bd60048036038101906106b89190613645565b6115f5565b6040516106ca919061362a565b60405180910390f35b3480156106df57600080fd5b506106fa60048036038101906106f591906136e3565b61160d565b005b34801561070857600080fd5b50610711611623565b60405161071e919061362a565b60405180910390f35b34801561073357600080fd5b5061074e60048036038101906107499190613723565b611629565b005b34801561075c57600080fd5b50610765611a14565b604051610772919061362a565b60405180910390f35b34801561078757600080fd5b506107a2600480360381019061079d91906138ab565b611a1a565b005b3480156107b057600080fd5b506107cb60048036038101906107c691906134ea565b611a37565b6040516107d89190613492565b60405180910390f35b6107fb60048036038101906107f691906134ea565b611aa0565b005b34801561080957600080fd5b50610824600480360381019061081f9190613645565b611ca6565b6040516108339392919061392e565b60405180910390f35b34801561084857600080fd5b50610851611cd0565b60405161085e919061362a565b60405180910390f35b34801561087357600080fd5b5061088e60048036038101906108899190613645565b611cd6565b60405161089b91906133e7565b60405180910390f35b3480156108b057600080fd5b506108cb60048036038101906108c69190613965565b611cf6565b6040516108d891906133e7565b60405180910390f35b6108fb60048036038101906108f69190613a46565b611d8a565b005b34801561090957600080fd5b50610924600480360381019061091f9190613645565b61215a565b60405161093191906133e7565b60405180910390f35b34801561094657600080fd5b50610961600480360381019061095c9190613645565b61217a565b005b600f60009054906101000a900473ffffffffffffffffffffffffffffffffffffffff1681565b60007f80ac58cd000000000000000000000000000000000000000000000000000000007bffffffffffffffffffffffffffffffffffffffffffffffffffffffff1916827bffffffffffffffffffffffffffffffffffffffffffffffffffffffff19161480610a5457507f5b5e139f000000000000000000000000000000000000000000000000000000007bffffffffffffffffffffffffffffffffffffffffffffffffffffffff1916827bffffffffffffffffffffffffffffffffffffffffffffffffffffffff1916145b80610a645750610a6382612200565b5b9050919050565b606060008054610a7a90613ad1565b80601f0160208091040260200160405190810160405280929190818152602001828054610aa690613ad1565b8015610af35780601f10610ac857610100808354040283529160200191610af3565b820191906000526020600020905b815481529060010190602001808311610ad657829003601f168201915b5050505050905090565b6000610b088261226a565b50610b12826122f2565b9050919050565b610b2b8282610b2661232f565b612337565b5050565b60116020528060005260406000206000915090508054610b4e90613ad1565b80601f0160208091040260200160405190810160405280929190818152602001828054610b7a90613ad1565b8015610bc75780601f10610b9c57610100808354040283529160200191610bc7565b820191906000526020600020905b815481529060010190602001808311610baa57829003601f168201915b505050505081565b600073ffffffffffffffffffffffffffffffffffffffff168273ffffffffffffffffffffffffffffffffffffffff1603610c415760006040517f64a0ae92000000000000000000000000000000000000000000000000000000008152600401610c389190613318565b60405180910390fd5b6000610c558383610c5061232f565b612349565b90508373ffffffffffffffffffffffffffffffffffffffff168173ffffffffffffffffffffffffffffffffffffffff1614610ccb578382826040517f64283d7b000000000000000000000000000000000000000000000000000000008152600401610cc293929190613b02565b60405180910390fd5b50505050565b60166020528060005260406000206000915090508060000154908060010154908060020160009054906101000a900473ffffffffffffffffffffffffffffffffffffffff16908060020160149054906101000a900460ff16905084565b600a5481565b610d4f83838360405180602001604052806000815250611a1a565b505050565b6016600082815260200190815260200160002060020160149054906101000a900460ff16610db7576040517f08c379a0000000000000000000000000000000000000000000000000000000008152600401610dae90613b85565b60405180910390fd5b6016600082815260200190815260200160002060010154421115610e10576040517f08c379a0000000000000000000000000000000000000000000000000000000008152600401610e0790613bf1565b60405180910390fd5b600060166000838152602001908152602001600020600001549050803414610e6d576040517f08c379a0000000000000000000000000000000000000000000000000000000008152600401610e6490613c5d565b60405180910390fd5b60006016600084815260200190815260200160002060020160009054906101000a900473ffffffffffffffffffffffffffffffffffffffff169050610ec330338560405180602001604052806000815250612563565b6000606460095484610ed59190613cac565b610edf9190613d1d565b905060008184610eef9190613d4e565b905080601260008573ffffffffffffffffffffffffffffffffffffffff1673ffffffffffffffffffffffffffffffffffffffff1681526020019081526020016000206000828254610f409190613d82565b9250508190555060006016600087815260200190815260200160002060020160146101000a81548160ff0219169083151502179055506001601460008573ffffffffffffffffffffffffffffffffffffffff1673ffffffffffffffffffffffffffffffffffffffff1681526020019081526020016000206000016000828254610fc99190613d82565b92505081905550601460008473ffffffffffffffffffffffffffffffffffffffff1673ffffffffffffffffffffffffffffffffffffffff168152602001908152602001600020600301339080600181540180825580915050600190039060005260206000200160009091909190916101000a81548173ffffffffffffffffffffffffffffffffffffffff021916908373ffffffffffffffffffffffffffffffffffffffff160217905550843373ffffffffffffffffffffffffffffffffffffffff168473ffffffffffffffffffffffffffffffffffffffff167ff6ccc0cf89c21c54724ea6ef2ec01da8fe33a1cebe06607e160fd78483eba302876040516110d1919061362a565b60405180910390a45050505050565b600c5481565b60006110f18261226a565b9050919050565b601060009054906101000a900473ffffffffffffffffffffffffffffffffffffffff1681565b60008073ffffffffffffffffffffffffffffffffffffffff168273ffffffffffffffffffffffffffffffffffffffff16036111915760006040517f89c62b640000000000000000000000000000000000000000000000000000000081526004016111889190613318565b60405180910390fd5b600360008373ffffffffffffffffffffffffffffffffffffffff1673ffffffffffffffffffffffffffffffffffffffff168152602001908152602001600020549050919050565b6111e0612580565b6111ea6000612607565b565b6000806000806016600086815260200190815260200160002060020160149054906101000a900460ff16611255576040517f08c379a000000000000000000000000000000000000000000000000000000000815260040161124c90613b85565b60405180910390fd5b601660008681526020019081526020016000206000015493506016600086815260200190815260200160002060010154421061129457600092506112b9565b4260166000878152602001908152602001600020600101546112b69190613d4e565b92505b6016600086815260200190815260200160002060020160009054906101000a900473ffffffffffffffffffffffffffffffffffffffff1691506016600086815260200190815260200160002060010154421015611331576103e8600f856113209190613cac565b61132a9190613d1d565b9050611336565b600090505b9193509193565b60075481565b60095481565b60176020528060005260406000206000915054906101000a900460ff1681565b6000600660009054906101000a900473ffffffffffffffffffffffffffffffffffffffff16905090565b6000601260003373ffffffffffffffffffffffffffffffffffffffff1673ffffffffffffffffffffffffffffffffffffffff1681526020019081526020016000205490506000811161141a576040517f08c379a000000000000000000000000000000000000000000000000000000000815260040161141190613e02565b60405180910390fd5b6000601260003373ffffffffffffffffffffffffffffffffffffffff1673ffffffffffffffffffffffffffffffffffffffff1681526020019081526020016000208190555060003373ffffffffffffffffffffffffffffffffffffffff168260405161148590613e53565b60006040518083038185875af1925050503d80600081146114c2576040519150601f19603f3d011682016040523d82523d6000602084013e6114c7565b606091505b505090508061150b576040517f08c379a000000000000000000000000000000000000000000000000000000000815260040161150290613eb4565b60405180910390fd5b3373ffffffffffffffffffffffffffffffffffffffff167f0f2fb75cc1977a496e94837f859e957f68e26e70dc1b75d9945ee92ae57969ba83604051611551919061362a565b60405180910390a25050565b60085481565b60606001805461157290613ad1565b80601f016020809104026020016040519081016040528092919081815260200182805461159e90613ad1565b80156115eb5780601f106115c0576101008083540402835291602001916115eb565b820191906000526020600020905b8154815290600101906020018083116115ce57829003601f168201915b5050505050905090565b60126020528060005260406000206000915090505481565b61161f61161861232f565b83836126cd565b5050565b600d5481565b6000601060009054906101000a900473ffffffffffffffffffffffffffffffffffffffff16905060008173ffffffffffffffffffffffffffffffffffffffff166370a08231336040518263ffffffff1660e01b815260040161168b9190613318565b602060405180830381865afa1580156116a8573d6000803e3d6000fd5b505050506040513d601f19601f820116820180604052508101906116cc9190613ee9565b1161170c576040517f08c379a000000000000000000000000000000000000000000000000000000000815260040161170390613f88565b60405180910390fd5b3373ffffffffffffffffffffffffffffffffffffffff1661172c856110e6565b73ffffffffffffffffffffffffffffffffffffffff1614611782576040517f08c379a000000000000000000000000000000000000000000000000000000000815260040161177990613ff4565b60405180910390fd5b600083116117c5576040517f08c379a00000000000000000000000000000000000000000000000000000000081526004016117bc90614060565b60405180910390fd5b60008211611808576040517f08c379a00000000000000000000000000000000000000000000000000000000081526004016117ff906140f2565b60405180910390fd5b61182333308660405180602001604052806000815250612563565b604051806080016040528084815260200183426118409190613d82565b81526020013373ffffffffffffffffffffffffffffffffffffffff1681526020016001151581525060166000868152602001908152602001600020600082015181600001556020820151816001015560408201518160020160006101000a81548173ffffffffffffffffffffffffffffffffffffffff021916908373ffffffffffffffffffffffffffffffffffffffff16021790555060608201518160020160146101000a81548160ff021916908315150217905550905050601560003373ffffffffffffffffffffffffffffffffffffffff1673ffffffffffffffffffffffffffffffffffffffff16815260200190815260200160002060009054906101000a900460ff166119bd576001600a600082825461195d9190613d82565b925050819055506001601560003373ffffffffffffffffffffffffffffffffffffffff1673ffffffffffffffffffffffffffffffffffffffff16815260200190815260200160002060006101000a81548160ff0219169083151502179055505b833373ffffffffffffffffffffffffffffffffffffffff167f72c6b00617fb9c6ec35f606798d02888460a1dd9bb2cce22abd49ee21a0ee8168585604051611a06929190614112565b60405180910390a350505050565b600b5481565b611a25848484610bcf565b611a318484848461283c565b50505050565b6060611a428261226a565b506000611a4d6129f3565b90506000815111611a6d5760405180602001604052806000815250611a98565b80611a7784612a0a565b604051602001611a88929190614177565b6040516020818303038152906040525b915050919050565b3073ffffffffffffffffffffffffffffffffffffffff16611ac0826110e6565b73ffffffffffffffffffffffffffffffffffffffff1614611b16576040517f08c379a0000000000000000000000000000000000000000000000000000000008152600401611b0d906141e7565b60405180910390fd5b6016600082815260200190815260200160002060020160149054906101000a900460ff16611b79576040517f08c379a0000000000000000000000000000000000000000000000000000000008152600401611b7090613b85565b60405180910390fd5b6016600082815260200190815260200160002060010154421015611c155760006016600083815260200190815260200160002060000154905060006103e8600f83611bc49190613cac565b611bce9190613d1d565b9050803414611c12576040517f08c379a0000000000000000000000000000000000000000000000000000000008152600401611c0990614253565b60405180910390fd5b50505b611c3030338360405180602001604052806000815250612563565b60006016600083815260200190815260200160002060020160146101000a81548160ff021916908315150217905550803373ffffffffffffffffffffffffffffffffffffffff167f62d66f5d387e08db35989a64daa510d22a7232d53039c6539e9bf747845f83e760405160405180910390a350565b60146020528060005260406000206000915090508060000154908060010154908060020154905083565b600e5481565b60156020528060005260406000206000915054906101000a900460ff1681565b6000600560008473ffffffffffffffffffffffffffffffffffffffff1673ffffffffffffffffffffffffffffffffffffffff16815260200190815260200160002060008373ffffffffffffffffffffffffffffffffffffffff1673ffffffffffffffffffffffffffffffffffffffff16815260200190815260200160002060009054906101000a900460ff16905092915050565b6000601060009054906101000a900473ffffffffffffffffffffffffffffffffffffffff16905060008173ffffffffffffffffffffffffffffffffffffffff166370a08231336040518263ffffffff1660e01b8152600401611dec9190613318565b602060405180830381865afa158015611e09573d6000803e3d6000fd5b505050506040513d601f19601f82011682018060405250810190611e2d9190613ee9565b11611e6d576040517f08c379a0000000000000000000000000000000000000000000000000000000008152600401611e6490613f88565b60405180910390fd5b600073ffffffffffffffffffffffffffffffffffffffff168373ffffffffffffffffffffffffffffffffffffffff1603611edc576040517f08c379a0000000000000000000000000000000000000000000000000000000008152600401611ed3906142bf565b60405180910390fd5b600c543414611f20576040517f08c379a0000000000000000000000000000000000000000000000000000000008152600401611f179061432b565b60405180910390fd5b600d54601460003373ffffffffffffffffffffffffffffffffffffffff1673ffffffffffffffffffffffffffffffffffffffff1681526020019081526020016000206002015410611fa6576040517f08c379a0000000000000000000000000000000000000000000000000000000008152600401611f9d906143bd565b60405180910390fd5b600e5460085410611fec576040517f08c379a0000000000000000000000000000000000000000000000000000000008152600401611fe390614429565b60405180910390fd5b6000825111612030576040517f08c379a000000000000000000000000000000000000000000000000000000000815260040161202790614495565b60405180910390fd5b6001600760008282546120439190613d82565b925050819055506000600754905061205b8482612ad8565b6120658184612af6565b60016017600083815260200190815260200160002060006101000a81548160ff0219169083151502179055506001600860008282546120a49190613d82565b925050819055506001601460008673ffffffffffffffffffffffffffffffffffffffff1673ffffffffffffffffffffffffffffffffffffffff16815260200190815260200160002060020160008282546120fe9190613d82565b92505081905550808473ffffffffffffffffffffffffffffffffffffffff167fd35bb95e09c04b219e35047ce7b7b300e3384264ef84a40456943dbc0fc17c148560405161214c9190613492565b60405180910390a350505050565b60136020528060005260406000206000915054906101000a900460ff1681565b612182612580565b600073ffffffffffffffffffffffffffffffffffffffff168173ffffffffffffffffffffffffffffffffffffffff16036121f45760006040517f1e4fbdf70000000000000000000000000000000000000000000000000000000081526004016121eb9190613318565b60405180910390fd5b6121fd81612607565b50565b60007f01ffc9a7000000000000000000000000000000000000000000000000000000007bffffffffffffffffffffffffffffffffffffffffffffffffffffffff1916827bffffffffffffffffffffffffffffffffffffffffffffffffffffffff1916149050919050565b60008061227683612b7b565b9050600073ffffffffffffffffffffffffffffffffffffffff168173ffffffffffffffffffffffffffffffffffffffff16036122e957826040517f7e2732890000000000000000000000000000000000000000000000000000000081526004016122e0919061362a565b60405180910390fd5b80915050919050565b60006004600083815260200190815260200160002060009054906101000a900473ffffffffffffffffffffffffffffffffffffffff169050919050565b600033905090565b6123448383836001612bb8565b505050565b60008061235584612b7b565b9050600073ffffffffffffffffffffffffffffffffffffffff168373ffffffffffffffffffffffffffffffffffffffff161461239757612396818486612d7d565b5b600073ffffffffffffffffffffffffffffffffffffffff168173ffffffffffffffffffffffffffffffffffffffff1614612428576123d9600085600080612bb8565b6001600360008373ffffffffffffffffffffffffffffffffffffffff1673ffffffffffffffffffffffffffffffffffffffff168152602001908152602001600020600082825403925050819055505b600073ffffffffffffffffffffffffffffffffffffffff168573ffffffffffffffffffffffffffffffffffffffff16146124ab576001600360008773ffffffffffffffffffffffffffffffffffffffff1673ffffffffffffffffffffffffffffffffffffffff168152602001908152602001600020600082825401925050819055505b846002600086815260200190815260200160002060006101000a81548173ffffffffffffffffffffffffffffffffffffffff021916908373ffffffffffffffffffffffffffffffffffffffff160217905550838573ffffffffffffffffffffffffffffffffffffffff168273ffffffffffffffffffffffffffffffffffffffff167fddf252ad1be2c89b69c2b068fc378daa952ba7f163c4a11628f55a4df523b3ef60405160405180910390a4809150509392505050565b61256e848484612e41565b61257a8484848461283c565b50505050565b61258861232f565b73ffffffffffffffffffffffffffffffffffffffff166125a6611369565b73ffffffffffffffffffffffffffffffffffffffff1614612605576125c961232f565b6040517f118cdaa70000000000000000000000000000000000000000000000000000000081526004016125fc9190613318565b60405180910390fd5b565b6000600660009054906101000a900473ffffffffffffffffffffffffffffffffffffffff16905081600660006101000a81548173ffffffffffffffffffffffffffffffffffffffff021916908373ffffffffffffffffffffffffffffffffffffffff1602179055508173ffffffffffffffffffffffffffffffffffffffff168173ffffffffffffffffffffffffffffffffffffffff167f8be0079c531659141344cd1fd0a4f28419497f9722a3daafe3b4186f6b6457e060405160405180910390a35050565b600073ffffffffffffffffffffffffffffffffffffffff168273ffffffffffffffffffffffffffffffffffffffff160361273e57816040517f5b08ba180000000000000000000000000000000000000000000000000000000081526004016127359190613318565b60405180910390fd5b80600560008573ffffffffffffffffffffffffffffffffffffffff1673ffffffffffffffffffffffffffffffffffffffff16815260200190815260200160002060008473ffffffffffffffffffffffffffffffffffffffff1673ffffffffffffffffffffffffffffffffffffffff16815260200190815260200160002060006101000a81548160ff0219169083151502179055508173ffffffffffffffffffffffffffffffffffffffff168373ffffffffffffffffffffffffffffffffffffffff167f17307eab39ab6107e8899845ad3d59bd9653f200f220920489ca2b5937696c318360405161282f91906133e7565b60405180910390a3505050565b60008373ffffffffffffffffffffffffffffffffffffffff163b11156129ed578273ffffffffffffffffffffffffffffffffffffffff1663150b7a0261288061232f565b8685856040518563ffffffff1660e01b81526004016128a2949392919061450a565b6020604051808303816000875af19250505080156128de57506040513d601f19601f820116820180604052508101906128db919061456b565b60015b612962573d806000811461290e576040519150601f19603f3d011682016040523d82523d6000602084013e612913565b606091505b50600081510361295a57836040517f64a0ae920000000000000000000000000000000000000000000000000000000081526004016129519190613318565b60405180910390fd5b805181602001fd5b63150b7a0260e01b7bffffffffffffffffffffffffffffffffffffffffffffffffffffffff1916817bffffffffffffffffffffffffffffffffffffffffffffffffffffffff1916146129eb57836040517f64a0ae920000000000000000000000000000000000000000000000000000000081526004016129e29190613318565b60405180910390fd5b505b50505050565b606060405180602001604052806000815250905090565b606060006001612a1984612fae565b01905060008167ffffffffffffffff811115612a3857612a37613780565b5b6040519080825280601f01601f191660200182016040528015612a6a5781602001600182028036833780820191505090505b509050600082602001820190505b600115612acd578080600190039150507f3031323334353637383961626364656600000000000000000000000000000000600a86061a8153600a8581612ac157612ac0613cee565b5b04945060008503612a78575b819350505050919050565b612af2828260405180602001604052806000815250613101565b5050565b6017600083815260200190815260200160002060009054906101000a900460ff16612b56576040517f08c379a0000000000000000000000000000000000000000000000000000000008152600401612b4d906145e4565b60405180910390fd5b80601160008481526020019081526020016000209081612b7691906147b0565b505050565b60006002600083815260200190815260200160002060009054906101000a900473ffffffffffffffffffffffffffffffffffffffff169050919050565b8080612bf15750600073ffffffffffffffffffffffffffffffffffffffff168273ffffffffffffffffffffffffffffffffffffffff1614155b15612d25576000612c018461226a565b9050600073ffffffffffffffffffffffffffffffffffffffff168373ffffffffffffffffffffffffffffffffffffffff1614158015612c6c57508273ffffffffffffffffffffffffffffffffffffffff168173ffffffffffffffffffffffffffffffffffffffff1614155b8015612c7f5750612c7d8184611cf6565b155b15612cc157826040517fa9fbf51f000000000000000000000000000000000000000000000000000000008152600401612cb89190613318565b60405180910390fd5b8115612d2357838573ffffffffffffffffffffffffffffffffffffffff168273ffffffffffffffffffffffffffffffffffffffff167f8c5be1e5ebec7d5bd14f71427d1e84f3dd0314c0f7b2291e5b200ac8c7c3b92560405160405180910390a45b505b836004600085815260200190815260200160002060006101000a81548173ffffffffffffffffffffffffffffffffffffffff021916908373ffffffffffffffffffffffffffffffffffffffff16021790555050505050565b612d8883838361311d565b612e3c57600073ffffffffffffffffffffffffffffffffffffffff168373ffffffffffffffffffffffffffffffffffffffff1603612dfd57806040517f7e273289000000000000000000000000000000000000000000000000000000008152600401612df4919061362a565b60405180910390fd5b81816040517f177e802f000000000000000000000000000000000000000000000000000000008152600401612e33929190614882565b60405180910390fd5b505050565b600073ffffffffffffffffffffffffffffffffffffffff168273ffffffffffffffffffffffffffffffffffffffff1603612eb35760006040517f64a0ae92000000000000000000000000000000000000000000000000000000008152600401612eaa9190613318565b60405180910390fd5b6000612ec183836000612349565b9050600073ffffffffffffffffffffffffffffffffffffffff168173ffffffffffffffffffffffffffffffffffffffff1603612f3457816040517f7e273289000000000000000000000000000000000000000000000000000000008152600401612f2b919061362a565b60405180910390fd5b8373ffffffffffffffffffffffffffffffffffffffff168173ffffffffffffffffffffffffffffffffffffffff1614612fa8578382826040517f64283d7b000000000000000000000000000000000000000000000000000000008152600401612f9f93929190613b02565b60405180910390fd5b50505050565b600080600090507a184f03e93ff9f4daa797ed6e38ed64bf6a1f010000000000000000831061300c577a184f03e93ff9f4daa797ed6e38ed64bf6a1f010000000000000000838161300257613001613cee565b5b0492506040810190505b6d04ee2d6d415b85acef81000000008310613049576d04ee2d6d415b85acef8100000000838161303f5761303e613cee565b5b0492506020810190505b662386f26fc10000831061307857662386f26fc10000838161306e5761306d613cee565b5b0492506010810190505b6305f5e10083106130a1576305f5e100838161309757613096613cee565b5b0492506008810190505b61271083106130c65761271083816130bc576130bb613cee565b5b0492506004810190505b606483106130e957606483816130df576130de613cee565b5b0492506002810190505b600a83106130f8576001810190505b80915050919050565b61310b83836131de565b613118600084848461283c565b505050565b60008073ffffffffffffffffffffffffffffffffffffffff168373ffffffffffffffffffffffffffffffffffffffff16141580156131d557508273ffffffffffffffffffffffffffffffffffffffff168473ffffffffffffffffffffffffffffffffffffffff16148061319657506131958484611cf6565b5b806131d457508273ffffffffffffffffffffffffffffffffffffffff166131bc836122f2565b73ffffffffffffffffffffffffffffffffffffffff16145b5b90509392505050565b600073ffffffffffffffffffffffffffffffffffffffff168273ffffffffffffffffffffffffffffffffffffffff16036132505760006040517f64a0ae920000000000000000000000000000000000000000000000000000000081526004016132479190613318565b60405180910390fd5b600061325e83836000612349565b9050600073ffffffffffffffffffffffffffffffffffffffff168173ffffffffffffffffffffffffffffffffffffffff16146132d25760006040517f73c6ac6e0000000000000000000000000000000000000000000000000000000081526004016132c99190613318565b60405180910390fd5b505050565b600073ffffffffffffffffffffffffffffffffffffffff82169050919050565b6000613302826132d7565b9050919050565b613312816132f7565b82525050565b600060208201905061332d6000830184613309565b92915050565b6000604051905090565b600080fd5b600080fd5b60007fffffffff0000000000000000000000000000000000000000000000000000000082169050919050565b61337c81613347565b811461338757600080fd5b50565b60008135905061339981613373565b92915050565b6000602082840312156133b5576133b461333d565b5b60006133c38482850161338a565b91505092915050565b60008115159050919050565b6133e1816133cc565b82525050565b60006020820190506133fc60008301846133d8565b92915050565b600081519050919050565b600082825260208201905092915050565b60005b8381101561343c578082015181840152602081019050613421565b60008484015250505050565b6000601f19601f8301169050919050565b600061346482613402565b61346e818561340d565b935061347e81856020860161341e565b61348781613448565b840191505092915050565b600060208201905081810360008301526134ac8184613459565b905092915050565b6000819050919050565b6134c7816134b4565b81146134d257600080fd5b50565b6000813590506134e4816134be565b92915050565b600060208284031215613500576134ff61333d565b5b600061350e848285016134d5565b91505092915050565b613520816132f7565b811461352b57600080fd5b50565b60008135905061353d81613517565b92915050565b6000806040838503121561355a5761355961333d565b5b60006135688582860161352e565b9250506020613579858286016134d5565b9150509250929050565b60008060006060848603121561359c5761359b61333d565b5b60006135aa8682870161352e565b93505060206135bb8682870161352e565b92505060406135cc868287016134d5565b9150509250925092565b6135df816134b4565b82525050565b60006080820190506135fa60008301876135d6565b61360760208301866135d6565b6136146040830185613309565b61362160608301846133d8565b95945050505050565b600060208201905061363f60008301846135d6565b92915050565b60006020828403121561365b5761365a61333d565b5b60006136698482850161352e565b91505092915050565b600060808201905061368760008301876135d6565b61369460208301866135d6565b6136a16040830185613309565b6136ae60608301846135d6565b95945050505050565b6136c0816133cc565b81146136cb57600080fd5b50565b6000813590506136dd816136b7565b92915050565b600080604083850312156136fa576136f961333d565b5b60006137088582860161352e565b9250506020613719858286016136ce565b9150509250929050565b60008060006060848603121561373c5761373b61333d565b5b600061374a868287016134d5565b935050602061375b868287016134d5565b925050604061376c868287016134d5565b9150509250925092565b600080fd5b600080fd5b7f4e487b7100000000000000000000000000000000000000000000000000000000600052604160045260246000fd5b6137b882613448565b810181811067ffffffffffffffff821117156137d7576137d6613780565b5b80604052505050565b60006137ea613333565b90506137f682826137af565b919050565b600067ffffffffffffffff82111561381657613815613780565b5b61381f82613448565b9050602081019050919050565b82818337600083830152505050565b600061384e613849846137fb565b6137e0565b90508281526020810184848401111561386a5761386961377b565b5b61387584828561382c565b509392505050565b600082601f83011261389257613891613776565b5b81356138a284826020860161383b565b91505092915050565b600080600080608085870312156138c5576138c461333d565b5b60006138d38782880161352e565b94505060206138e48782880161352e565b93505060406138f5878288016134d5565b925050606085013567ffffffffffffffff81111561391657613915613342565b5b6139228782880161387d565b91505092959194509250565b600060608201905061394360008301866135d6565b61395060208301856135d6565b61395d60408301846135d6565b949350505050565b6000806040838503121561397c5761397b61333d565b5b600061398a8582860161352e565b925050602061399b8582860161352e565b9150509250929050565b600067ffffffffffffffff8211156139c0576139bf613780565b5b6139c982613448565b9050602081019050919050565b60006139e96139e4846139a5565b6137e0565b905082815260208101848484011115613a0557613a0461377b565b5b613a1084828561382c565b509392505050565b600082601f830112613a2d57613a2c613776565b5b8135613a3d8482602086016139d6565b91505092915050565b60008060408385031215613a5d57613a5c61333d565b5b6000613a6b8582860161352e565b925050602083013567ffffffffffffffff811115613a8c57613a8b613342565b5b613a9885828601613a18565b9150509250929050565b7f4e487b7100000000000000000000000000000000000000000000000000000000600052602260045260246000fd5b60006002820490506001821680613ae957607f821691505b602082108103613afc57613afb613aa2565b5b50919050565b6000606082019050613b176000830186613309565b613b2460208301856135d6565b613b316040830184613309565b949350505050565b7f54686973204e4654206973206e6f74206c697374656420666f722073616c6500600082015250565b6000613b6f601f8361340d565b9150613b7a82613b39565b602082019050919050565b60006020820190508181036000830152613b9e81613b62565b9050919050565b7f4c697374696e6720686173206578706972656400000000000000000000000000600082015250565b6000613bdb60138361340d565b9150613be682613ba5565b602082019050919050565b60006020820190508181036000830152613c0a81613bce565b9050919050565b7f496e636f72726563742045746865722076616c75652073656e74000000000000600082015250565b6000613c47601a8361340d565b9150613c5282613c11565b602082019050919050565b60006020820190508181036000830152613c7681613c3a565b9050919050565b7f4e487b7100000000000000000000000000000000000000000000000000000000600052601160045260246000fd5b6000613cb7826134b4565b9150613cc2836134b4565b9250828202613cd0816134b4565b91508282048414831517613ce757613ce6613c7d565b5b5092915050565b7f4e487b7100000000000000000000000000000000000000000000000000000000600052601260045260246000fd5b6000613d28826134b4565b9150613d33836134b4565b925082613d4357613d42613cee565b5b828204905092915050565b6000613d59826134b4565b9150613d64836134b4565b9250828203905081811115613d7c57613d7b613c7d565b5b92915050565b6000613d8d826134b4565b9150613d98836134b4565b9250828201905080821115613db057613daf613c7d565b5b92915050565b7f4e6f2070726f636565647320746f207769746864726177000000000000000000600082015250565b6000613dec60178361340d565b9150613df782613db6565b602082019050919050565b60006020820190508181036000830152613e1b81613ddf565b9050919050565b600081905092915050565b50565b6000613e3d600083613e22565b9150613e4882613e2d565b600082019050919050565b6000613e5e82613e30565b9150819050919050565b7f5472616e73666572206661696c65640000000000000000000000000000000000600082015250565b6000613e9e600f8361340d565b9150613ea982613e68565b602082019050919050565b60006020820190508181036000830152613ecd81613e91565b9050919050565b600081519050613ee3816134be565b92915050565b600060208284031215613eff57613efe61333d565b5b6000613f0d84828501613ed4565b91505092915050565b7f596f75206d75737420686f6c642061204d656d62657273686970204e4654207460008201527f6f20706572666f726d207468697320616374696f6e0000000000000000000000602082015250565b6000613f7260358361340d565b9150613f7d82613f16565b604082019050919050565b60006020820190508181036000830152613fa181613f65565b9050919050565b7f596f7520646f206e6f74206f776e2074686973204e4654000000000000000000600082015250565b6000613fde60178361340d565b9150613fe982613fa8565b602082019050919050565b6000602082019050818103600083015261400d81613fd1565b9050919050565b7f5072696365206d7573742062652067726561746572207468616e207a65726f00600082015250565b600061404a601f8361340d565b915061405582614014565b602082019050919050565b600060208201905081810360008301526140798161403d565b9050919050565b7f4475726174696f6e206d7573742062652067726561746572207468616e207a6560008201527f726f000000000000000000000000000000000000000000000000000000000000602082015250565b60006140dc60228361340d565b91506140e782614080565b604082019050919050565b6000602082019050818103600083015261410b816140cf565b9050919050565b600060408201905061412760008301856135d6565b61413460208301846135d6565b9392505050565b600081905092915050565b600061415182613402565b61415b818561413b565b935061416b81856020860161341e565b80840191505092915050565b60006141838285614146565b915061418f8284614146565b91508190509392505050565b7f4e4654206973206e6f742068656c642062792074686520636f6e747261637400600082015250565b60006141d1601f8361340d565b91506141dc8261419b565b602082019050919050565b60006020820190508181036000830152614200816141c4565b9050919050565b7f496e636f72726563742064656c697374696e67206665652073656e7400000000600082015250565b600061423d601c8361340d565b915061424882614207565b602082019050919050565b6000602082019050818103600083015261426c81614230565b9050919050565b7f43616e6e6f74206d696e7420746f207a65726f20616464726573730000000000600082015250565b60006142a9601b8361340d565b91506142b482614273565b602082019050919050565b600060208201905081810360008301526142d88161429c565b9050919050565b7f496e636f7272656374206d696e74696e67206665652073656e74000000000000600082015250565b6000614315601a8361340d565b9150614320826142df565b602082019050919050565b6000602082019050818103600083015261434481614308565b9050919050565b7f4d696e74696e67206c696d6974207265616368656420666f722074686973206160008201527f6464726573730000000000000000000000000000000000000000000000000000602082015250565b60006143a760268361340d565b91506143b28261434b565b604082019050919050565b600060208201905081810360008301526143d68161439a565b9050919050565b7f4d6178696d756d204e465420737570706c792072656163686564000000000000600082015250565b6000614413601a8361340d565b915061441e826143dd565b602082019050919050565b6000602082019050818103600083015261444281614406565b9050919050565b7f4d6574616461746120555249206d7573742062652070726f7669646564000000600082015250565b600061447f601d8361340d565b915061448a82614449565b602082019050919050565b600060208201905081810360008301526144ae81614472565b9050919050565b600081519050919050565b600082825260208201905092915050565b60006144dc826144b5565b6144e681856144c0565b93506144f681856020860161341e565b6144ff81613448565b840191505092915050565b600060808201905061451f6000830187613309565b61452c6020830186613309565b61453960408301856135d6565b818103606083015261454b81846144d1565b905095945050505050565b60008151905061456581613373565b92915050565b6000602082840312156145815761458061333d565b5b600061458f84828501614556565b91505092915050565b7f6e6f6e6578697374656e7420746f6b656e496400000000000000000000000000600082015250565b60006145ce60138361340d565b91506145d982614598565b602082019050919050565b600060208201905081810360008301526145fd816145c1565b9050919050565b60008190508160005260206000209050919050565b60006020601f8301049050919050565b600082821b905092915050565b6000600883026146667fffffffffffffffffffffffffffffffffffffffffffffffffffffffffffffffff82614629565b6146708683614629565b95508019841693508086168417925050509392505050565b6000819050919050565b60006146ad6146a86146a3846134b4565b614688565b6134b4565b9050919050565b6000819050919050565b6146c783614692565b6146db6146d3826146b4565b848454614636565b825550505050565b600090565b6146f06146e3565b6146fb8184846146be565b505050565b5b8181101561471f576147146000826146e8565b600181019050614701565b5050565b601f8211156147645761473581614604565b61473e84614619565b8101602085101561474d578190505b61476161475985614619565b830182614700565b50505b505050565b600082821c905092915050565b600061478760001984600802614769565b1980831691505092915050565b60006147a08383614776565b9150826002028217905092915050565b6147b982613402565b67ffffffffffffffff8111156147d2576147d1613780565b5b6147dc8254613ad1565b6147e7828285614723565b600060209050601f83116001811461481a5760008415614808578287015190505b6148128582614794565b86555061487a565b601f19841661482886614604565b60005b828110156148505784890151825560018201915060208501945060208101905061482b565b8683101561486d5784890151614869601f891682614776565b8355505b6001600288020188555050505b505050505050565b60006040820190506148976000830185613309565b6148a460208301846135d6565b939250505056fea264697066735822122024633c3c2d0cc1e8140c0f374a0277c2e591bd5018a3b41dac7d76342703ad3764736f6c63430008180033",
  "linkReferences": {},
  "deployedLinkReferences": {}
}